:100000000C94BC080C9403090C9403090C94030988
:100010000C9403090C9403090C9403090C94030930
:100020000C9403090C9403090C945E230C94312462
:100030000C946B1A0C9403090C9403090C94030997
:100040000C9403090C9403090C9403090C94030900
:100050000C9403090C94CC1A0C9403090C94030916
:100060000C9403090C9403090C9403090C940309E0
:100070000C9403090C9403090C9403090C940309D0
:100080000C9403090C9403090C9403090C940309C0
:100090000C9403090C9403090C9403090C940309B0
:1000A0000C9403090C9403090C9403092900000023
:1000B0003A003B003C003D003E003F004000410054
:1000C000420035001E001F002000210022002300F6
:1000D00024002500260027002B0014001A00080029
:1000E000150017001C0018000C0012001300390046
:1000F00004001600070009000A000B000D000E00A6
:100100000F003300E10000001D001B000600190075
:1001100005004F0051005200500011001000360041
:100120000000430044004500000000000000000003
:10013000E000E300E2002D002E0000002A00530042
:100140005400550056000000000000002C002F0055
:10015000300031005F006000610000004600470091
:10016000480000003400000028005C005D005E00D4
:10017000570049004A004B0037003800E5000000F6
:1001800059005A005B0000004C004D004E00E60094
:1001900001517600E4006200000063005800010095
:1001A0000000010001000100010001000100010048
:1001B0000100010001000100010001000100010037
:1001C0000100010001000100010001000100010027
:1001D0000100010001000100010001000100010017
:1001E0000100010001000100010001000100010007
:1001F00001000100010001000000010001000100F8
:1002000001000100010001000100010001000100E6
:1002100001000000010001000100000000000000DA
:1002200000000100010001000100010000000100C8
:1002300001000100010001000000000000000100B9
:1002400001000100010001000100010000000100A7
:100250000100A800000001000000010001000100F1
:100260000100010001000100A900010001000100DE
:100270000000010001000100000001000100AA00CF
:100280000100010001000100010000000100010067
:100290000100000001000100010001000100010057
:1002A0000100010001000100010001000100010046
:1002B0000100010001000100010001000100010036
:1002C0000100010001000100010001000100010026
:1002D0000100010001000100010001000100010016
:1002E0000100010001000100010000000100010007
:1002F00001000100010001000100010001000100F6
:1003000001000100000001000100010000000000E8
:1003100000000000010001000100010001000000D8
:1003200001000100010001000100000000000000C8
:1003300001000100010001000100010001000000B6
:1003400001000100010000000100000001000100A7
:100350000100010001000100010001000100010095
:100360000100000001000100010000000100010087
:100370000100010001000100010001000000010076
:100380000100010000000100010001000100010066
:100390000100010001000100010001000100010055
:1003A0000100010001000100010001000100010045
:1003B0000100010001000100010001000100010035
:1003C0000100010001000100010001000100010025
:1003D0000100010001000100010001000000010016
:1003E0000100010001000100010001000100010005
:1003F00001000100010000000100010001000000F7
:1004000000000000000001000100010001000100E7
:1004100000000100010001000100010000000000D7
:1004200000000100010001000100010001000100C5
:1004300000000100010001000000010000000100B7
:1004400001000100010001000100010001000100A4
:100450000100010000000100010001000000010096
:100460000100010001000100010001000100000085
:100470000100010001000000010001000100010075
:100480000100010001000100010001000100010064
:100490000100010001000100010001000100010054
:1004A0000100010001000100010001000100010044
:1004B0000100010001000100010001000100010034
:1004C0000100010001000100010001000100000025
:1004D0000100010001000100010001000100010014
:1004E0000100010001000100000001000100010005
:1004F00000000000000000000100010001000100F8
:1005000001000000010001000100010001000000E5
:1005100000000000010001000100010001000100D5
:1005200001000000010001000100000001000000C6
:1005300001000100010001000100010001000100B3
:1005400001000100010000000100010001000000A5
:100550000100010001000100010001000100010093
:100560000000010001000100000001000100010085
:100570000100010001000100010001000100010073
:100580000100010001000100010001000100010063
:100590000100010001000100010001000100010053
:1005A0000100010001000100010001000100010043
:1005B0000100010001000100010001000100010033
:1005C0000000010001000100010001000100010024
:1005D0000100010001000100010000000100010014
:1005E0000100000000000000000001000100010007
:1005F00001000100000001000100010001000100F4
:1006000000000000000001000100010001000100E5
:1006100001000100000001000100010000000100D4
:1006200000000100010001000100010001000100C3
:1006300001000100010001000000010001000100B3
:1006400000000100010001000100010001000100A3
:100650000100000001000100010000000100010094
:100660000100010001000100010001000100010082
:100670000100010001000100010001000100010072
:100680000100010001000100010001000100010062
:100690000100010001000100010001000100010052
:1006A0000100010001000100010001000100010042
:1006B0000100000001000100010001000100010033
:1006C0000100010001000100010001000000010023
:1006D0000100010000000000000000000100010016
:1006E0000100010001000000010001000100010003
:1006F00001000000000000000100010001000100F5
:1007000001000100010000000100010001000000E3
:1007100001000000010001000100010001000100D2
:1007200001000100010001000100000001000100C2
:1007300001000000010001000100010001000100B2
:1007400001000100000001000100010000000100A3
:100750000100010001000100010001000100010091
:100760000100010001000100010001000100010081
:100770000100010001000100010001000100010071
:100780000100010001000100010001000100010061
:100790000100010001000100010001000100010051
:1007A0000100010000000100010001000100010042
:1007B0000100010001000100010001000100000032
:1007C0000100010001000000000000000000010025
:1007D0000100010001000100000001000100010012
:1007E0000100010000000000000001000100010004
:1007F00001000100010001000000010001000100F2
:1008000000000100000001000100010001000100E2
:1008100001000100010001000100010000000100D1
:1008200001000100000001000100010001000100C1
:1008300001000100010000000100010001000000B2
:1008400001000100010001000100010001000100A0
:100850000100010001000100010001000100010090
:100860000100010001000100010001000100010080
:100870000100010001000100010001000100010070
:100880000100010001000100010001000100010060
:100890000100010001000000010001000100010051
:1008A0000100010001000100010001000100010040
:1008B0000000010001000100000000000000000035
:1008C0000100010001000100010000000100010021
:1008D0000100010001000000000000000100010013
:1008E0000100010001000100010000000100010001
:1008F00001000000010000000100010001000100F2
:1009000001000100010001000100010001000000E0
:1009100001000100010000000100010001000100D0
:1009200001000100010001000000010001000100C0
:1009300000000100010001000100010001000100B0
:10094000010001000100010001000100010001009F
:10095000010001000100010001000100010001008F
:10096000010001000100010001000100010001007F
:10097000010001000100010001000100010001006F
:100980000100010001000100000001000100010060
:10099000010001000100010001000100010001004F
:1009A0000100000001000100010000000000000043
:1009B0000000010001000100010001000000010031
:1009C0000100010001000100000000000000010022
:1009D0000100010001000100010001000000010010
:1009E0000100010000000100000001000100010001
:1009F00001000100010001000100010001000100EF
:100A000000000100010001000000010001000100E0
:100A100001000100010001000100000001000100CF
:100A200001000000010001000100010001000100BF
:100A300001000100010001000100010001000100AE
:100A4000010001000100010001000100010001009E
:100A5000010001000100010001000100010001008E
:100A6000010001000100010001000100010001007E
:100A7000010001000100010001000000010001006F
:100A8000010001000100010001000100010001005E
:100A90000100010000000100010001000000000051
:100AA0000000000001000100010001000100000041
:100AB0000100010001000100010000000000000031
:100AC000010001000100010001000100010000001F
:100AD0000100010001000000010000000100010010
:100AE00001000100010001000100010001000100FE
:100AF00001000000010001000100000001000100F0
:100B000001000100010001000100010000000100DE
:100B100001000100000001000100010001000100CE
:100B200001000100010001000100010001000100BD
:100B300001000100010001000100010001000100AD
:100B4000010001000100010001000100010001009D
:100B5000010001000100010001000100010001008D
:100B6000010001000100010001000100000001007E
:100B7000010001000100010001000100010001006D
:100B8000010001000100000001000100010000005F
:100B90000000000000000100010001000100010050
:100BA0000000010001000100010001000000000040
:100BB000000001000100010001000100010001002E
:100BC0000000010001000100000001000000010020
:100BD000010001000100010001000100010001000D
:100BE00001000100000001000100010000000100FF
:100BF00001000100010001000100010001000000EE
:100C000001000100010000000100010001000100DD
:100C100001000100010001000100010001000100CC
:100C200001000100010001000100010001000100BC
:100C300001000100010001000100010001000100AC
:100C4000010001000100010001000100010001009C
:100C5000010001000100010001000100010000008D
:100C6000010001000100010001000100010001007C
:100C7000010001000100010000000100010001006D
:100C80000000000000000000010001000100010060
:100C9000010000000100010001000100010000004E
:100CA000000000000100010001000100010001003E
:100CB000010000000100010001000000010000002F
:100CC000010001000100010001000100010001001C
:100CD000010001000100000001000100010000000E
:100CE00001000100010001000100010001000100FC
:100CF00000000100010001000000010001000100EE
:100D000001000100010001000100010001000100DB
:100D100001000100010001000100010001000100CB
:100D200001000100010001000100010001000100BB
:100D300001000100010001000100010001000100AB
:100D4000010001000100010001000100010001009B
:100D5000000001000100010001000100010001008C
:100D6000010001000100010001000000010001007C
:100D7000010000000000000000000100010001006F
:100D8000010001000000010001000100010001005C
:100D9000000000000000010001000100010001004E
:100DA000010001000000010001000100000001003D
:100DB000000001000100010001000100010001002C
:100DC000010001000100010000000100010001001C
:100DD000000001000100010001000100010001000C
:100DE00001000000010001000100000001000100FD
:100DF00001000100010001000100010001000100EB
:100E000001000100010001000100010001000100DA
:100E100001000100010001000100010001000100CA
:100E200001000100010001000100010001000100BA
:100E300001000100010001000100010001000100AA
:100E4000010000000100010001000100010001009B
:100E5000010001000100010001000100000001008B
:100E6000010001000000000000000000010001007E
:100E7000010001000100000001000100010001006B
:100E8000010000000000000001000100010001005D
:100E9000010001000100000001000100010000004C
:100EA000010000000100010001000100010001003B
:100EB000010001000100010001000000010001002B
:100EC000010000000100010001000100010001001B
:100ED000010001000000010001000100000001000C
:100EE00001000100010001000100010001000100FA
:100EF00001000100010001000100010001000100EA
:100F000001000100010001000100010001000100D9
:100F100001000100010001000100010001000100C9
:100F200001000100010001000100010001000100B9
:100F300001000100000001000100010001000100AA
:100F4000010001000100010001000100010000009A
:100F5000010001000100000000000000000001008D
:100F6000010001000100010000000100010001007A
:100F7000010001000000000000000100010001006C
:100F8000010001000100010000000100010001005A
:100F9000000001000000010001000100010001004B
:100FA000010001000100010001000100000001003A
:100FB000010001000000010001000100010001002A
:100FC00001000100010000000100010012036B009C
:100FD0006500790062006F0061007200640000002B
:100FE000160371006D006B006200750069006C00F3
:100FF00064006500720000000403090409026D002A
:10100000040100A0FA090400000103010100092104
:10101000110100012240000705810308000A0904AC
:1010200001000103010200092111010001224D000C
:101030000705820308000A090402000103000000FA
:101040000921110100012236000705830308000A67
:10105000090403000103000000092111010001221D
:10106000390007058403200001120110010000006F
:1010700008EDFE606001000102000105010906A102
:1010800001050719E029E71500250195087501817B
:10109000020508190129059505750191029501754B
:1010A0000391010507190029F71500250195F87529
:1010B000018102C005010980A101850216010026F7
:1010C00003001A81002A8300751095018100C00574
:1010D0000C0901A1018503160100269C021A0100DA
:1010E0002A9C02751095018100C005010902A10129
:1010F0000901A1000509190129051500250195051A
:1011000075018102950175038101050109300931DD
:101110001581257F95027508810609381581257F7F
:10112000950175088106050C0A38021581257F9501
:101130000175088106C0C005010906A1010507194E
:10114000E029E715002501950875018102950175D3
:101150000881010508190129059505750191029578
:1011600001750391010507190029FF150026FF00ED
:10117000950675088100C00011241FBECFEFDAE08C
:10118000DEBFCDBF04B603FE27C0809192029091CE
:101190009302A0919402B09195028730904BA740A2
:1011A000B04BD1F4109292021092930210929402DA
:1011B0001092950214BE84B7877F84BF0FB6F8944F
:1011C000A895809160008861809360001092600013
:1011D0000FBEE0E0F8E3099511E0A0E0B1E0ECE338
:1011E000FFE402C005900D92AE33B107D9F722E0BB
:1011F000AEE3B1E001C01D92A239B207E1F70E944F
:10120000B4200C9470270C94000090E080E00895C6
:101210000895089581E00895089581E008950C945B
:101220000A090E94BC122FEF84E39CE02150804009
:101230009040E1F700C000000C94EF1AEF92FF928B
:101240000F931F93CF93DF938C01FC01E080F1801B
:1012500080919C01811140C082818823C1F1C70126
:101260000E944118C82F682FC7010E94EA17B701D2
:101270008C2F0E94560AEC01B8010E940F098823A6
:1012800009F44BC0B801CE010E945F0C882309F419
:1012900044C0C531F0E7DF0720F5C23080E7D8074A
:1012A00008F04DC0C115E0E7DE0791F1C130D0472D
:1012B000E1F181E08093400180934101C801DF9119
:1012C000CF911F910F91FF90EF900C940D09C701E2
:1012D0000E941818C82FCBCFC7010E944118B70130
:1012E000C8CFCC3380E7D80709F49BC0CD33D047B3
:1012F00001F7F8018281882309F4BAC010924101F4
:101300000E949B1A90933F0180933E0180E296C019
:10131000F801828181110E94110980E0DF91CF9153
:101320001F910F91FF90EF900895F801828188231B
:10133000A1F380915202816080935202EECFF801B6
:101340008281882309F4BACF0E94FC19811102C05E
:101350000E94E2190E94191A90E0909384028093EF
:101360008302FE01E350F047809183028160E23105
:10137000F10538F4EE58F84D0C9420278091830243
:10138000826080938302809183020E941D1A0E94D2
:10139000BC12C3CF809183028460F3CF809183021B
:1013A0008860EFCF809183028061EBCF80918302D0
:1013B0008062E7CF809183028064E3CF80918302D3
:1013C0008068DFCF809183028C60DBCF80918302C5
:1013D0008E7FD7CF809183028D7FD3CF8091830280
:1013E0008B7FCFCF80918302877FCBCF8091830289
:1013F0008F7EC7CF809183028F7DC3CF8091830280
:101400008F7BBFCF809183028F77BBCF8091830288
:10141000837FB7CF90918302892F97FB87F98058FC
:10142000B0CFF8018281882361F0109240010E94C0
:101430009B1A90933F0180933E0182E00E9421100D
:101440006CCF8091400181110FC080913E0190913D
:101450003F010E94A71A883C910530F486E20E9461
:10146000F60E86E20E94D20F82E00E94281055CF2D
:101470008091410181110FC080913E0190913F0107
:101480000E94A71A883C910530F487E20E94F60E6C
:1014900087E20E94D20F80E2E8CF0C94AE0C0C944D
:1014A000B00C0C940C090C94510A0895972F70E01D
:1014B0002BE0929F600D711D1124FB0199E7899F1C
:1014C000E00DF11D1124EE0FFF1FE455FF4F859134
:1014D00094910895FC01EE0FFF1FE453F04F8591A6
:1014E000949108950E94560A0E94E30B9C01811575
:1014F00040E4940708F097C0211580E3380708F00E
:10150000FAC0203E310508F074C0203C310508F0D7
:10151000E5C0283A310588F4253A310508F0E2C0E3
:101520002130310509F477C0C9010497813A91054A
:1015300008F471C030E020E06EC0C901885A9109FA
:101540004597C0F7283A310509F4FEC0293A31051C
:1015500009F4FDC02A3A310509F4FCC02B3A3105E3
:1015600009F4FBC02C3A310509F4FAC02B3B3105D4
:1015700009F4F9C02C3B310509F4F8C02D3A3105C6
:1015800009F4F7C0203B310509F4F6C02E3A3105C5
:1015900009F4F5C02F3A310509F4F4C0213B3105B7
:1015A00009F4F3C0223B310509F4F2C0233B3105B5
:1015B00009F4F1C0243B310509F4F0C0253B3105A5
:1015C00009F4EFC0263B310509F4EEC0273B310595
:1015D00009F4EDC0283B310509F4ECC0293B310585
:1015E00009F4EBC02A3B310509F4EAC020E034E4F9
:1015F00012C0211590E2390780F42F3F310509F020
:1016000050F4283E310538F0C901805F91093065FA
:10161000409708F08FCFC9010895C9019F700E94BB
:101620006A0A9C01F8CF8115944508F041C0211544
:1016300083E5380708F06AC0211592E5390738F5C7
:10164000211541E5340708F05CC0211580E5380715
:1016500008F454C0C90134E0969587953A95E1F7AE
:101660008370422F46954695437090E2499FA001B2
:101670001124582B822F837021E030E002C0220F0A
:10168000331F8A95E2F7242B352B3C68C4CFC90160
:101690008370992741E050E002C0440F551F8A959E
:1016A000E2F72695269580E2289F90011124EBCF42
:1016B000211596E5390748F4922F882721153545DD
:1016C000C8F59C01246F306AA6CFC90190563F70BF
:1016D0008115904108F02ECF30629DCFC901805C0A
:1016E00091099DCF253A310549F1263A310549F551
:1016F00022E830E490CF3327306C8DCF3F70306AD2
:101700008ACF322F2227216F306A85CFC90183709B
:10171000992741E050E002C0440F551F8A95E2F737
:101720002695269580E2289F90011124242B352BA5
:101730003A6871CF88279F719C01CECF21E830E4B1
:101740006ACF23E830E467CF22EE34E464CF29EE99
:1017500034E461CF2AEE34E45ECF25EB34E45BCF92
:1017600026EB34E458CF23EB34E455CF24EB34E4B8
:1017700052CF27EB34E44FCF2CEC34E44CCF2DEC9C
:1017800034E449CF23E835E446CF2AE835E443CFB3
:1017900022E935E440CF24E935E43DCF21E236E4C7
:1017A0003ACF23E236E437CF24E236E434CF25E2E1
:1017B00036E431CF26E236E42ECF27E236E42BCFD3
:1017C0002AE236E428CF803E910581F1C8F48133C6
:1017D000910509F462C048F48932910509F456C0B4
:1017E0008A32910509F460C0089589339105B9F0F2
:1017F00082389105A1F08533910509F440C0089520
:10180000863E910561F138F4823E9105B1F0833E48
:101810009105E1F00895873E910551F108952091D9
:1018200083022370D9F080EE90E008952091830226
:1018300020FF14C089E390E008952091830222FFE5
:101840000DC024FD09C083EE90E00895209183022D
:1018500022FD31C024FF02C090E080E00895209175
:10186000830223FFFBCF24FDF7CF87EE90E008959E
:101870002091830223FFEECF86EE90E00895209121
:10188000830225FFEBCF89E290E008952091830247
:1018900025FFE4CF85E390E008952091830226FFA1
:1018A000DDCF8AE290E008952091830226FFD6CF13
:1018B00081E390E0089582EE90E0089508950F93FB
:1018C0001F93CF938C01FB018281811106C0C1E07F
:1018D0008C2FCF911F910F910895C0914F01C1118D
:1018E00025C00531104799F70E945E0C81E0809376
:1018F0004F010E949B1A90934E0180934D011092CC
:10190000420110924401109243011092460110923C
:101910004501109248011092470110924A0110921D
:10192000490110924C0110924B01D2CF80914D0190
:1019300090914E010E94A71A883C910540F6809133
:101940004201E82FF0E0EE0FFF1FED5BFE4F118329
:1019500000838F5F80934201C0E0BACF0C940809E6
:101960000C94090985B7806885BF85B7806885BFF5
:10197000AEE1B1E061E070E08D91E82FE295EF70AB
:10198000F0E041A18F709B0101C0220F8A95EAF718
:10199000922F9095942391A382A1822B82A381E020
:1019A000A932B80749F7A3E1B1E061E070E08D9199
:1019B000E82FE295EF70F0E041A18F709B0101C02C
:1019C000220F8A95EAF7922F9095942391A382A1F2
:1019D000822B82A381E0AE31B80749F7E6E6F1E059
:1019E000A0E5B1E08CE791E0119211921D921D9259
:1019F0008E179F07C9F70C944D0A2F923F924F9272
:101A00005F926F927F928F929F92AF92BF92CF928E
:101A1000DF92EF92FF920F931F93CF93DF9300E536
:101A200011E08EE1C82E81E0D82E1801EE24E39457
:101A3000F12C66246394D1018D909D901D011E921E
:101A40001E92E60189916E01E82FE295EF70F0E0B9
:101A500091A18F70970101C0220F8A95EAF7892F13
:101A6000822B81A382A1722E7094872182A3D0EA57
:101A7000DA95F1F763E171E090E080E0EB015990D5
:101A8000BE01452D42954F7050E0EA0148A0AD904F
:101A9000BC901197552D5F70E70102C0CC0FDD1F80
:101AA0005A95E2F7AE01442109F059C0A701082E6A
:101AB00002C0440F551F0A94E2F74A295B29119688
:101AC0005C934E9301968B309105C1F681A17822EB
:101AD00071A282A1282B22A38D919C918816990630
:101AE00041F060927C010E949B1A90937E0180934A
:101AF0007D01D6E62D16D1E03D0609F09CCF809100
:101B00007C018823B1F080917D0190917E010E943B
:101B1000A71A069770F0E6E6F1E0D8018D919D9145
:101B20008D0181939193B1E006361B07B1F71092B6
:101B30007C010E944F0A81E0DF91CF911F910F91AC
:101B4000FF90EF90DF90CF90BF90AF909F908F90DD
:101B50007F906F905F904F903F902F90089550E04E
:101B600040E0ABCFE82FF0E0EE0FFF1FEA59FE4F49
:101B700080819181089508959093840180938301D9
:101B80000895E0918301F0918401309721F0019054
:101B9000F081E02D099480E00895E0918301F091B7
:101BA0008401309721F00280F381E02D099408959B
:101BB000E0918301F0918401309721F00480F58158
:101BC000E02D099408952091810130918201281718
:101BD000390771F09093820180938101E091830134
:101BE000F0918401309721F00680F781E02D09946F
:101BF000089520917F01309180012817390771F0F5
:101C00009093800180937F01E0918301F0918401A2
:101C1000309721F00084F185E02D0994089508950E
:101C20000C940F0E0E94921A0E94B20C0C945C1B32
:101C30005F926F927F928F929F92AF92BF92CF925C
:101C4000DF92EF92FF920F931F93CF93DF9300D019
:101C500000D00F92CDB7DEB70E94FD0C96E8A92EFA
:101C600091E0B92E10E000E088248394912C502E4E
:101C7000802F0E94B20D7C01F501C190D1905F01CF
:101C8000C816D90609F45DC08091520281FD0E94F8
:101C9000BB0D90E080E0CE24DF243401082E02C08A
:101CA000660C771C0A94E2F7960126213721232B34
:101CB00009F442C089835A82E620F72081E0EF28A8
:101CC00009F480E08B830E949B1A8160782F9D83AA
:101CD0008C8349815A816B818D810E94CD0E000FCA
:101CE000111FF801EA57FE4F8081918168267926FD
:101CF000718260820E94091E0E94C10D909185012F
:101D00008917B1F10E94C10D809385010F900F904A
:101D10000F900F900F90DF91CF911F910F91FF9037
:101D2000EF90DF90CF90BF90AF909F908F907F907B
:101D30006F905F900C94530A01968B30910509F0D7
:101D4000ACCF0F5F1F4F0B30110509F090CF8FEF15
:101D500089838A831B820E949B1A8160782F9D83CE
:101D60008C8349815A816B818D810E94CD0EC2CFB7
:101D70000F900F900F900F900F90DF91CF911F91C8
:101D80000F91FF90EF90DF90CF90BF90AF909F901A
:101D90008F907F906F905F900895CF93DF93CDB732
:101DA000DEB72B970FB6F894DEBF0FBECDBF4F83C3
:101DB000588769877A878B871E8285E0FE01379670
:101DC000DE01119601900D928A95E1F749815A81C1
:101DD0006B817C818D819E812B960FB6F894DEBF3E
:101DE0000FBECDBFDF91CF910C944415882309F429
:101DF000D8C0823871F40E94C10D81FDD2C089E340
:101E00000E94E9180E94B31989E30E9426190C94D4
:101E1000B319833859F40E94C10D80FDC2C083E517
:101E20000E94E9180E94B31983E5EFCF843859F472
:101E30000E94C10D82FDB5C087E40E94E9180E948E
:101E4000B31987E4E2CF9CEF980F913A18F40E94FF
:101E5000E918DDCF90E2980F983050F4877091E048
:101E600001C0990F8A95EAF7892F0E946A19CFCF8E
:101E70009BE5980F933070F4853A31F0863A39F04B
:101E800083E890E00C94E30D81E890E0FBCF82E8DA
:101E900090E0F8CF98E5980F953108F082C0883A25
:101EA00009F440C0893A09F440C08A3A09F440C0B4
:101EB0008B3A09F440C08C3A09F440C08B3B09F4DA
:101EC00040C08C3B09F440C08D3A09F440C0803BCF
:101ED00009F440C08E3A09F440C08F3A09F440C07A
:101EE000813B09F440C0823B09F440C0833B09F4C4
:101EF00040C0843B09F440C0853B09F440C0863BA8
:101F000009F440C0873B09F440C0883B09F440C055
:101F1000893B09F440C08A3B09F440C090E080E06E
:101F20000C94F90D82EE90E0FBCF89EE90E0F8CFB3
:101F30008AEE90E0F5CF85EB90E0F2CF86EB90E073
:101F4000EFCF83EB90E0ECCF84EB90E0E9CF87EB31
:101F500090E0E6CF8CEC90E0E3CF8DEC90E0E0CF2A
:101F600083E891E0DDCF8AE891E0DACF82E991E081
:101F7000D7CF84E991E0D4CF81E292E0D1CF83E260
:101F800092E0CECF84E292E0CBCF85E292E0C8CF60
:101F900086E292E0C5CF87E292E0C2CF8AE292E089
:101FA000BFCF0895882309F44BC0823871F40E9492
:101FB000C10D81FF45C089E30E94E9180E94B31951
:101FC00089E30E9426190C94B319833859F40E94AE
:101FD000C10D80FF35C083E50E94E9180E94B31946
:101FE00083E5EFCF843859F40E94C10D82FF28C0E9
:101FF00087E40E94E9180E94B31987E4E2CF9CEFBE
:10200000980F913AF0F290E2980F983050F4877060
:1020100091E001C0990F8A95EAF7892F0E94701903
:10202000D2CF9BE5980F933020F490E080E00C94A1
:10203000E30D885A853120F490E080E00C94F90D8E
:102040000895882321F00E946A190C94B319089509
:10205000882321F00E9470190C94B31908958F926F
:102060009F92AF92BF92DF92EF92FF920F931F93D6
:10207000CF93DF9300D000D00F92CDB7DEB77C01B5
:102080006D837983FC01058102950F701281111116
:102090000E9489190E94E218D82E882371F011231A
:1020A000A1F08D81805E883080F082E00E94CC18A3
:1020B0000E94E21891E0D82ED926E981E295EF70CE
:1020C000F0E0EC57F84D0C942027D12CF6CF098185
:1020D0000F70F981F07F11F00295007F1123B1F0AC
:1020E000002361F08D81805E883018F02D812111F0
:1020F00009C0802F0E946A190E94B3198D810E9425
:10210000F60E15C0802F0E947B19F6CF8D810E949C
:10211000D20F002361F08D81805E883018F03D8100
:10212000311129C0802F0E9470190E94B319DD203F
:1021300009F4D3C10E94BF1880FDCFC1F7011282FC
:102140000E94B9180E940217C7010E947E120E94C5
:10215000B9180F900F900F900F900F90DF91CF91C3
:102160001F910F91FF90EF90DF90BF90AF909F90E5
:102170008F900C942417802F0E948119D6CF49810B
:102180004F70B42E5981507F503219F0B29480EFC5
:10219000B8228D81882369F0813029F1112369F1FA
:1021A000002359F0F701858180FFA8CF8F708583C8
:1021B00004C0112361F0011104C08B2D0E94211075
:1021C000B6CF8B2D0130D1F70E949D19B0CF0111F0
:1021D00006C00E94A0198B2D0E942810A8CF0130A4
:1021E00009F4A5CFF6CF112321F0063008F09FCFD8
:1021F000E4CF053008F09BCFEECF002361F38D8153
:102200000E94D20F94CF898186958695837069F05C
:10221000813009F08CCF8D8199819370111102C0AA
:1022200090E080E00E94F90D82CF8D8199819370BA
:10223000111102C090E080E00E94E30D78CF8D8103
:10224000112329F00E94171D0E94FE1D70CF0E94CD
:102250007F1DFACF8981837009F05FC0111167CFAC
:102260002D81229526952770220F220F8D818F7048
:1022700090E0B0E0A0E04C015D01022E04C0880CAB
:10228000991CAA1CBB1C0A94D2F7FD8160E070E087
:10229000CB01F4FF0FC06FE070E080E090E004C07D
:1022A000660F771F881F991F2A95D2F76095709542
:1022B0008095909529812695269523702D8322302F
:1022C000B1F0233019F19B01AC01282939294A29A1
:1022D0005B2929833A834B835C833D8169817A81C1
:1022E0008B819C813130B1F00E948F1620CF9B01F1
:1022F000AC01282939294A295B2929833A834B8350
:102300005C83CA01B9010E94B91611CF0E948F16D1
:10231000C501B4010E9465160ACF8695112311F0FC
:1023200089818170882309F402CF2D812295269519
:102330002770220F220F8D818F7090E0B0E0A0E017
:102340004C015D01022E04C0880C991CAA1CBB1C08
:102350000A94D2F73D8160E070E0CB0134FF0FC0FA
:102360006FE070E080E090E004C0660F771F881F88
:10237000991F2A95D2F7609570958095909549811F
:102380004695469543704D834230B1F0433019F184
:102390009B01AC01282939294A295B2929833A83E1
:1023A0004B835C833D8169817A818B819C81313053
:1023B000B1F00E949517BBCE9B01AC0128293929A9
:1023C0004A295B2929833A834B835C83CA01B9017B
:1023D0000E94BF17ACCE0E949517C501B4010E94A0
:1023E0006B17A5CE3D81323F09F447C080F4303FE2
:1023F00079F1313FD9F1832F805E8031D0F0112304
:1024000009F456C001117ACE89818F7133C04D8194
:10241000433FD1F1443F99F7112309F43FC089812B
:102420008F7189830E94021763E089810E94C3181B
:102430007ECE5D815F705D8389818F71112321F074
:102440000E9402178D81BACE0E9424178D81C4CEBE
:10245000112341F0053008F06ACE89818F710E9406
:10246000491765CE063008F062CEF7CF89818F71AB
:10247000112339F00E9402175ACE89818F711123DE
:10248000C9F30E94241753CE112329F089818F713B
:102490000E94ED164CCE0E94E31649CE81E00E94C8
:1024A000CC18023008F443CE82E00E94CC183FCE14
:1024B0000111A5CE89818F71E4CF49814F706D8163
:1024C000C7010E9405090E94DE1531CE49814F7077
:1024D0006D81C7010E94550A2ACE0F900F900F9070
:1024E0000F900F90DF91CF911F910F91FF90EF9080
:1024F000DF90BF90AF909F908F9008950F931F93A0
:10250000CF93DF93EC018B819C81892B29F088810B
:10251000998189238F3F29F4DF91CF911F910F91EA
:102520000895CE010E941E098823B1F36881798144
:102530008A810E948F188C010E94E9170E945A1606
:10254000B801CE01DF91CF911F910F910C942F1004
:102550000E9489190E949A190E945C190E94B3195D
:102560000E94EF1E0E94FE1D90E080E00E94E30D9D
:1025700090E080E00C94F90D0E9478190C94A81258
:102580000E948318282F892F82958F70903C80F4A9
:102590008A30B0F4843020F4823090F480E00895E2
:1025A0008630E1F781E0203E88F0213FB9F70EC088
:1025B0008C3011F08F3091F793FB882780F90895C4
:1025C00081E0203F39F018F4203E40F70895243F81
:1025D00029F7FCCF0895CF93DF9300D000D00F925E
:1025E000CDB7DEB70F900F900F900F900F90DF9147
:1025F000CF910895CF93DF9300D000D000D0CDB716
:10260000DEB726960FB6F894DEBF0FBECDBFDF91C2
:10261000CF9108951F93CF93DF93E0919D0116E032
:1026200080919E018E1304C0DF91CF911F91089578
:10263000CE2FD0E01E9FF0011124E156FE4F4081C5
:10264000518162817381848195810E94FA12FE0119
:102650003196E770E5CF4091CF015091D001609164
:10266000D1017091D2018091D3019091D4010C9449
:10267000FA121F93CF93DF938091D401807FC1F42E
:102680008091D1018823A1F080919D01C0919E018C
:102690006091CF017091D0014091D2015091D3014E
:1026A000D62FD723DA01A095B09516E0C81304C041
:1026B000DF91CF911F91089590E04115510511F0E0
:1026C000DF3F31F401968770F1CF2A0F3B1F17C00F
:1026D000189FF001199FF00D1124E156FE4F218142
:1026E0002713F0CF20812613EDCF22812111EACFCD
:1026F000238134812417350740F3241B350B283CF4
:10270000310500F72091D4012F7020612093D4016E
:1027100026E0289FF001299FF00D1124EC55FE4F73
:1027200080818F70806180838FEC91E00E947E12A7
:10273000DF91CF911F910C940A139F92AF92BF9299
:10274000CF92DF92EF92FF920F931F93CF93DF937D
:10275000CDB7DEB72B970FB6F894DEBF0FBECDBF57
:102760008C0185E0F801DE01179601900D928A95A3
:10277000E1F7D8014C9111965C9111971296EC906B
:1027800012978091D2019091D301009709F46BC107
:102790002091CF013091D001632F62236F3F09F464
:1027A00062C11396CD90DC909090D101992009F4EC
:1027B000F8C0C816D90608F43FC0F601E81BF90BAB
:1027C000CF01FF24F394883C910508F0F12C8FECA5
:1027D000A82E81E0B82E8091D401982F907FFF2001
:1027E00009F4B7C0911180C0FE2C35132AC0241300
:1027F00028C0E11026C08F7080618093D4010E94B0
:102800002B13C5010E947E128091D401D801159628
:102810008C938F2D2B960FB6F894DEBF0FBECDBFD5
:10282000DF91CF911F910F91FF90EF90DF90CF90AC
:10283000BF90AF909F900895809590958C0D9D1DB1
:10284000C0CFCD2829F0842F85238F3F09F019C1EF
:1028500080E0B82FB170DB2EE0919D0120919E01A8
:1028600036E080FD1CC0EE20A1F28091D401816091
:102870008093D401F12CCDCF8E2F90E03E9FF001BC
:102880001124E156FE4F6181651306C06081641317
:1028900003C062816E11E7CFFC013196E770E2134D
:1028A000EBCF4F8358878F8198850E948318292FFB
:1028B00022952F70903260F0225F2F70223078F4D2
:1028C0009F7051F0F8019581907F31F4D12C0AC0AE
:1028D0009F7011F08823D1F3805E8830B8F3C8016F
:1028E0000E947E12FD2C95CF351306C0241304C020
:1028F000D801EE2009F47BC04F8358878F819885DB
:102900000E94C012882309F4B8C0EE2009F4B5C0B3
:102910008091D401803270F02091CF013091D001AC
:102920003A8329831B82DD82CC828E83CE0101967D
:102930000E947E1286E0F801AFECB1E001900D92AA
:102940008A95E1F70E9439130E942B13FF24F39418
:1029500060CF911113C07C2DDB86CA866E2D8B85CE
:102960000E94EB128FEC91E00E947E1286E0F5014E
:1029700011928A95E9F70E942B134BCF3513BCCFE8
:102980002413BACFE110B8CFD80115968C93C801A3
:102990000E947E1286E0F50111928A95E9F7F92CE2
:1029A00038CFC816D90688F1B601681B790BCB0160
:1029B000F12C883C910508F047C0FE2CEE2009F46C
:1029C0005CC0351330C024132EC08091D40180FD2B
:1029D00021C0982F907FF1F0D80115968C93159710
:1029E000903F39F0982F907F905F8F70892B1596CC
:1029F0008C93C8010E947E1286E0F801AFECB1E032
:102A000001900D928A95E1F7B6CF809590958C0D47
:102A10009D1DCECF86E0F801AFECB1E001900D92A4
:102A20008A95E1F7F6CE4F8358878F8198850E946B
:102A3000C01281117FCF8091D40181608093D40135
:102A4000C8010E947E12E5CE7C2DDB86CA866E2DE3
:102A50008B850E94EB1286E0EFECF1E0DF011D9226
:102A60008A95E9F788CFEE2041F04F8358878F8110
:102A700098850E94C01281115DCFC8010E947E120C
:102A800065CF81E08E25E5CE1F93CF93DF93CDB741
:102A9000DEB72C970FB6F894DEBF0FBECDBF4F83C5
:102AA000588769877A878B879C87CE0107960E9413
:102AB0009D13882369F08A859B85892B39F04F8186
:102AC0005885842F85238F3F09F071C016E05FC0C1
:102AD00086E0FE013796DE01119601900D928A95EF
:102AE000E1F78A859B85892B89F388859F818923D6
:102AF0008F3F61F320919E0130E0C90101968770FC
:102B0000992740919D014817190671F40E94BC1243
:102B100010929E0110929D0186E0EFECF1E0DF0142
:102B20001D928A95E9F7D2CF96E0929FD001939FAC
:102B3000B00D1124A156BE4FFE01319601900D92A9
:102B40009A95E1F780939E010E940A13BFCF819F5F
:102B5000C001112481569E4F0E949D138823E9F0E5
:102B6000E0919D011E9FF0011124E156FE4F40812E
:102B7000518162817381848195810E94FA128091D2
:102B80009D0190E001968770992780939D01809127
:102B90009D0190919E018913DACF2C960FB6F8947F
:102BA000DEBF0FBECDBFDF91CF911F910895698524
:102BB0007A858B859C850E94FA1288CFEF92FF92CE
:102BC0000F931F93CF93DF938C01892B89F0F12C06
:102BD000EE24E394E8012196F8018491843709F406
:102BE00057C0A0F4823009F43EC048F48130D1F0DF
:102BF000DF91CF911F910F91FF90EF9008959CEF7F
:102C0000980F9037A8F70E94F60E0AC0853709F48E
:102C10004CC09CE7980F903758F78F770E94D20FDF
:102C20008E0116C00E5F1F4FFE01849190E2980F37
:102C3000983060F48770FE2D01C0FF0F8A95EAF787
:102C40008F2F0E948C190E94B31902C00E94F60EA9
:102C50008F2D815008F4BECFEFE9FFE03197F1F7F7
:102C600000C00000F6CF0E5F1F4FFE01849190E27E
:102C7000980F983050F48770FE2D01C0FF0F8A9591
:102C8000EAF78F2F0E949219DECF0E94D20FE0CF79
:102C90000E5F1F4FFE01C491C150D0F28FE99FE03B
:102CA0000197F1F700C00000F7CF0E5F1F4FFE0144
:102CB000F490CECF08956093290270932A028093F6
:102CC0002B0290932C020C94A812CF93DF9300D088
:102CD00000D0CDB7DEB769837A838B839C838091E4
:102CE000290290912A02A0912B02B0912C022981F5
:102CF0003A814B815C81822B932BA42BB52B809343
:102D0000290290932A02A0932B02B0932C020F90D9
:102D10000F900F900F90DF91CF910C94A812CF934A
:102D2000DF9300D000D0CDB7DEB769837A838B8381
:102D30009C838091290290912A02A0912B02B0914C
:102D40002C0229813A814B815C8182239323A42325
:102D5000B5238093290290932A02A0932B02B0936B
:102D60002C020F900F900F900F90DF91CF910C9449
:102D7000A812CF93DF9300D000D0CDB7DEB7698320
:102D80007A838B839C838091290290912A02A0915F
:102D90002B02B0912C0229813A814B815C818227E0
:102DA0009327A427B5278093290290932A02A09302
:102DB0002B02B0932C020F900F900F900F90DF9189
:102DC000CF910C94A8121092250210922602109214
:102DD0002702109228020C94A81241E050E060E013
:102DE00070E004C0440F551F661F771F8A95D2F705
:102DF0004093250250932602609327027093280285
:102E00000C94A812282F81E090E0A0E0B0E004C06C
:102E1000880F991FAA1FBB1F2A95D2F74091250240
:102E2000509126026091270270912802842B952BE5
:102E3000A62BB72B8093250290932602A0932702FE
:102E4000B09328020C94A81241E050E060E070E0DA
:102E500004C0440F551F661F771F8A95D2F740950F
:102E60005095609570958091250290912602A091D1
:102E70002702B091280284239523A623B7238093A9
:102E8000250290932602A0932702B09328020C9467
:102E9000A812282F81E090E0A0E0B0E004C0880FE5
:102EA000991FAA1FBB1F2A95D2F740912502509166
:102EB0002602609127027091280284279527A62771
:102EC000B7278093250290932602A0932702B09300
:102ED00028020C94A812CF93DF9300D000D0CDB776
:102EE000DEB769837A838B839C83809125029091DE
:102EF0002602A0912702B091280229813A814B81B4
:102F00005C81822B932BA42BB52B8093250290936D
:102F10002602A0932702B09328020F900F900F90E3
:102F20000F90DF91CF910C94A812CF93DF9300D034
:102F300000D0CDB7DEB769837A838B839C83809181
:102F4000250290912602A0912702B09128022981A2
:102F50003A814B815C8182239323A423B523809300
:102F6000250290932602A0932702B09328020F9087
:102F70000F900F900F90DF91CF910C94A812CF93E8
:102F8000DF9300D000D0CDB7DEB769837A838B831F
:102F90009C838091250290912602A0912702B091F6
:102FA000280229813A814B815C8182279327A427BB
:102FB000B5278093250290932602A0932702B09311
:102FC00028020F900F900F900F90DF91CF910C94EB
:102FD000A8120895E82F2BE0929FE00D11248E2F68
:102FE000877041E001C0440F8A95EAF7E695E695BF
:102FF000E69585E0E89FF0011124EB52FE4F30E0AA
:1030000020E070E05191DF011197CB01022E02C048
:10301000969587950A94E2F7817081958527842398
:1030200085278C932F5F3F4F2530310559F7089541
:10303000E82F2BE0929FE00D11249E2F9770E695CC
:10304000E695E69585E0E89FF0011124EB52FE4FEE
:1030500050E040E080E0219130E0092E02C036953A
:1030600027950A94E2F721703327042E01C0220F1E
:103070000A94EAF7822B4F5F5F4F4530510559F7AD
:103080000895BF92CF92DF92EF92FF920F931F931A
:10309000CF93DF938C01C0902502D0902602E09060
:1030A0002702F09028028091290290912A02A09193
:1030B0002B02B0912C02C82AD92AEA2AFB2ACFE196
:1030C000D0E0BC2ED701C6010C2E04C0B695A79542
:1030D000979587950A94D2F780FD0EC0219788F7BF
:1030E000B12C8B2DDF91CF911F910F91FF90EF901D
:1030F000DF90CF90BF900895B8018C2F0E94720A84
:10310000019761F3EECFCF93DF93D82FC92F0E94A1
:1031100041186D2F7C2FDF91CF910C94720A1F9371
:10312000CF93DF93162FD72F90919C01992339F0DD
:10313000862F972FDF91CF911F910C9483188823AE
:1031400091F0862F972F0E944118C82F682F812F4A
:103150009D2F0E94EA17612F7D2F8C2FDF91CF9139
:103160001F910C94720A862F972F0E941818C82F4F
:10317000F2CF80912D028595859585950895809152
:103180002D028770089598E0899F90011124622B89
:1031900060932D020C94021790912D028095892343
:1031A00080932D02282F277061F4282F082E000C01
:1031B000330B9217130629F08595859585950C9408
:1031C0002417089590912D02977081E009F480E012
:1031D0000895909112019923E1F09091830297FF55
:1031E00018C0E82FE695E695E695EF3139F1209184
:1031F000000130910101E20FF32FF11D877021E0F2
:1032000030E001C0220F8A95EAF78181822B818309
:1032100008952091000130910101F90132969FEF4C
:1032200040E05191851751F09F3F19F4511101C0B1
:10323000942F4F5F4E31A9F79F3F09F40895290F4E
:10324000311D97FD3A95F9018283089590911201FD
:10325000992301F19091830297FF1CC0E82FE69516
:10326000E695E695EF3139F12091000130910101A9
:10327000E20FF32FF11D877021E030E0A90102C0B9
:10328000440F551F8A95E2F7CA01809591818923E1
:10329000818308952091000130910101F901329656
:1032A000205E3F4F9191891303C0DF0111971C925B
:1032B000E217F307B9F7089581E090E0E09100018B
:1032C000F0910101E80FF91F1082019680329105FB
:1032D000A9F7089590915102982B90935102089567
:1032E000982F9095809151028923809351020895DF
:1032F00010925102089590915002982B9093500291
:103300000895982F909580915002892380935002C0
:10331000089510925002089590914F02982B909327
:103320004F020895982F909580914F0289238093A2
:103330004F02089510924F02089580932E0208952F
:1033400010922E0208952091000130910101F9019F
:103350003196205E3F4F80E0919191118F5FE2178F
:10336000F307D1F70895E0910001F09101018091F8
:1033700051028083E0910001F091010180819091E0
:103380005002892B8083E0910001F091010180813E
:1033900090914F02892B808390912E02992361F0A6
:1033A000E0910001F09101018081892B80830E94CE
:1033B000A319811110922E028091000190910101B8
:1033C0000C94CD0D6DEE7EEF90E080E00E945A27C8
:1033D00060E082E090E00E94482760E083E090E0B7
:1033E0000E94482760E084E090E00E94482760E067
:1033F00085E090E00C94482790E080E00E9442270E
:103400009C0181E02D3E3E4F09F080E0089582E06E
:1034100090E00C943A27682F82E090E00C944827C3
:1034200083E090E00C943A27682F83E090E00C94BE
:10343000482784E090E00C943A27682F84E090E0DD
:103440000C94482780918902843039F110925302FC
:1034500088E190E020E40FB6F894A895809360008E
:103460000FBE2093600080E00E94530A83B7817FE3
:10347000846083BF83B7816083BF7894889583B766
:103480008E7F83BF0FB6F894A89580916000886105
:1034900080936000109260000FBE08950895089513
:1034A000CF930E944E1A0E94FD0C0E944F1AC0E05A
:1034B0008C2F0E94B20D892B31F4CF5FCB30C1F736
:1034C00080E0CF91089581E0FCCF0E94BC120E9461
:1034D000C10D0C94530A1F921FB61F9211248F9393
:1034E0009F93AF93BF9380915302811113C080913A
:1034F0007F0290918002A0918102B0918202419658
:10350000A11DB11D80937F0290938002A093810240
:10351000B0938202BF91AF919F918F911F901FBE78
:103520001F90189582E084BD93E095BD9AEF97BDFA
:1035300080936E0008952FB7F89480917F02909148
:103540008002A0918102B09182022FBF0895CF9294
:10355000DF92EF92FF929C014FB7F89480917F0227
:1035600090918002A0918102B09182024FBF6C01C4
:103570007D01EE24FF24A90170E060E0C416D506A9
:10358000E606F70638F0821B930BFF90EF90DF9072
:10359000CF9008950197F7CF1F921FB61F92112465
:1035A0008F939F93AF93BF9380917F0290918002FE
:1035B000A0918102B09182020196A11DB11D80935C
:1035C0007F0290938002A0938102B0938202BF9108
:1035D000AF919F918F911F901FBE1F9018950E94D1
:1035E000E322F8942FEF87EA91E621508040904043
:1035F000E1F700C0000087E090EBDC0180939202CD
:1036000090939302A0939402B093950288E19CE07A
:103610000FB6F894A895809360000FBE9093600059
:10362000FFCFAF92BF92CF92DF92EF92FF920F93B4
:103630001F93CF93C0E0AA24A394B12CE82EF12CC1
:103640008C2F0E94B20D6C0110E000E0C501002E2D
:1036500002C0880F991F0A94E2F78C219D21892BC3
:1036600099F0602F7C2F80E00E94560AE816F90638
:1036700059F481E0CF911F910F91FF90EF90DF906F
:10368000CF90BF90AF9008950F5F1F4F0B30110583
:10369000E9F6CF5FCB30A1F680E0ECCFCF93C82F17
:1036A0008CE20E94111B882321F08C2FCF910C9467
:1036B000111B80E0CF910895CF93DF9300D000D00D
:1036C000CDB7DEB70E94FC19811102C00E94E21939
:1036D00095E6998308C00E94FD0C8FE39CE9019751
:1036E000F1F700C00000A981A150A983A111F3CF77
:1036F00089E20E944E1B811110C18AE20E944E1B7A
:1037000081110E94E21985E00E944E1B81110E94E6
:10371000EF1A0E94071A8093520287E00E944E1B04
:10372000882371F08BE10E944E1B882309F4D1C0DD
:1037300090915202892F8D7F91FF82608093520277
:10374000809152020E940B1A0E94191A90E09093E5
:1037500084028093830280EE0E944E1B882341F0F6
:1037600090918302892F8E7F90FF816080938302E6
:1037700089E30E944E1B882341F090918302892F98
:103780008D7F91FF82608093830282EE0E944E1BA8
:10379000882341F090918302892F8B7F92FF846070
:1037A0008093830286EE0E944E1B882341F0909105
:1037B0008302892F877F93FF88608093830283EE43
:1037C0000E944E1B882341F090918302892F8F7EA7
:1037D00094FF80618093830285E30E944E1B8823BF
:1037E00041F090918302892F8F7D95FF80628093B5
:1037F000830281E30E944E1B882341F09091830253
:10380000892F8F7B96FF80648093830281E10E94E1
:103810004E1B882341F090918302892F97FB87F9F3
:10382000805880938302809183020E941D1A87E250
:103830000E944E1B89838EE10E944E1B882319F043
:10384000B981B260B9838FE10E944E1B882319F0C1
:1038500029812460298380E20E944E1B882319F06D
:1038600039813860398381E20E944E1B882319F028
:1038700049814061498382E20E944E1B882319F0EE
:1038800059815062598383E20E944E1B882319F0AC
:1038900089818064898384E20E944E1B8823B1F170
:1038A00099819068998389810E94141A3981232F04
:1038B00030E050E040E029833A834B835C83CA01C7
:1038C000B9010F900F900F900F90DF91CF910C9452
:1038D0005B168EE00E944E1B882339F090915202B5
:1038E000892F8B7F92FF846029CF80E10E944E1B3D
:1038F00090915202882329F0892F877F93FF886057
:103900001DCF892F8E7F90FF816018CFA981A111D3
:10391000CACF0E94101A282FCBCF0F900F900F9074
:103920000F90DF91CF9108958091560280FF12C0D1
:103930006091050185E0689FB00111247595679538
:103940007595679560387105A8F561157105A1F148
:10395000862F089581FF09C06091050185E0689F69
:10396000B001112475956795EDCF6091050182FD39
:103970000AC0809157028823D1F090910401609190
:103980000501891728F085E0689FB0011124DACF7E
:10399000869FB001112485E0869F9001879F300D9E
:1039A0001124692F70E0C9010E940C27CBCF65E07C
:1039B00070E0CECF8FE7089581E0089580915602A0
:1039C00080FF0CC06091030170E075956795759557
:1039D00067956115710549F1862F089581FF06C02D
:1039E0006091030170E075956795F3CF60910301D5
:1039F00082FD0BC0909157029923A1F060910201C2
:103A000080910301961738F0682F70E060387105D7
:103A100000F38FE70895899FC001112470E00E9490
:103A20000C27F4CF61E070E0D7CF81E00895803FAC
:103A300031F40E94941C819580935A020895813F2D
:103A400019F40E94941CF8CF823F31F40E94941C18
:103A50008195809359020895833F19F40E94941C24
:103A6000F8CF893F29F40E94DE1C80935B02089501
:103A70008A3F21F40E94DE1C8195F7CF8B3F31F401
:103A80000E94DE1C819580935C0208958C3F19F49E
:103A90000E94DE1CF8CF843F31F48091580281608F
:103AA000809358020895853F21F4809158028260E6
:103AB000F7CF863F21F4809158028460F1CF873F91
:103AC00021F4809158028860EBCF883F21F48091E7
:103AD00058028061E5CF8D3F31F4809156028160BC
:103AE0008093560208958E3F21F4809156028260A1
:103AF000F7CF8F3FB9F7809156028460F1CF909154
:103B00005902803F41F480915A0287FD10925A0277
:103B1000992371F00895813F29F480915A02181673
:103B2000ACF3F6CF823F81F497FFF2CF10925902A7
:103B300080915A0290915B02892B90915C02892BB3
:103B400049F7109257020895833F19F4191674F338
:103B5000DFCF893F39F480915B021816CCF61092C2
:103B60005B02D6CF8A3F29F480915B0287FFD0CFDA
:103B7000F6CF8B3F39F480915C0287FFC9CF10925A
:103B80005C02C6CF8C3F29F480915C021816BCF30E
:103B9000BFCF843F31F4809158028E7F80935802CA
:103BA000B7CF853F21F4809158028D7FF7CF863FB4
:103BB00021F4809158028B7FF1CF873F21F48091CF
:103BC0005802877FEBCF883F21F4809158028F7E87
:103BD000E5CF8D3F31F4809156028E7F809356025F
:103BE00097CF8E3F21F4809156028D7FF7CF8F3F84
:103BF00009F08ECF809156028B7FF0CF88E592E05E
:103C00000E94D80D0E949B1A9093550280935402F3
:103C100008951F93CF93DF9300D000D000D0CDB78D
:103C2000DEB780915402909155020E94A71AAC0110
:103C3000809157022091060130E0811106C0209149
:103C400007019AE0299F900111244217530788F039
:103C500020915902A0915A02A98310915B02B09160
:103C60005C02BE8321110FC09A2F912B9B2B09F070
:103C7000B2C026960FB6F894DEBF0FBECDBFDF915F
:103C8000CF911F9108958F3F19F08F5F8093570256
:103C9000121624F40E94941C8093590280915902B8
:103CA00087FF05C00E94941C819580935902298149
:103CB000121624F40E94941C80935A0280915A0296
:103CC00087FF05C00E94941C819580935A028091C1
:103CD0005902882309F455C030915A023D83332399
:103CE00009F44FC0282F880F330B440B550B298341
:103CF0003A834B835C83CA01B9010E94132623E3F4
:103D000033E343E35FE369837A838B839C83698135
:103D10007A818B819C810E94772669837A838B8349
:103D20009C8369817A818B819C810E94DB256093D1
:103D300059028D81082E000C990BAA0BBB0B8983AD
:103D40009A83AB83BC83BC01CD010E94132623E37D
:103D500033E343E35FE369837A838B839C836981E5
:103D60007A818B819C810E94772669837A838B83F9
:103D70009C8369817A818B819C810E94DB25609381
:103D80005A02111624F40E94DE1C80935B0280917B
:103D90005B0287FF05C00E94DE1C819580935B0259
:103DA0009E81191624F40E94DE1C80935C0280918F
:103DB0005C0287FF05C00E94DE1C819580935C0237
:103DC00026960FB6F894DEBF0FBECDBFDF91CF9120
:103DD0001F910C94FE1D8F3F09F057CF68CF85E0EF
:103DE000E8E5F2E0DF011D928A95E9F710925702AB
:103DF00010925602089580917D020895CF93DF932B
:103E000000D00F92CDB7DEB720918902243019F58A
:103E100023E029838A839B832093E9008FEF90918D
:103E2000E800815095FD06C095ED9A95F1F70000E8
:103E30008111F5CF8091E80085FF0DC050E040E092
:103E400063E070E0CE0101960E945B218091E80062
:103E50008E778093E8000F900F900F90DF91CF91B5
:103E60000895CF93DF9300D00F92CDB7DEB79C01BA
:103E700080918902843031F582E0898320583109AC
:103E80003B832A8383E08093E9008FEF9091E800E1
:103E9000815095FD06C095ED9A95F1F700008111CE
:103EA000F5CF8091E80085FF0DC050E040E063E071
:103EB00070E0CE0101960E945B218091E8008E7730
:103EC0008093E8000F900F900F90DF91CF910895AD
:103ED000209189022430F1F422E02093E9002FEFB1
:103EE0003091E800215035FD06C035ED3A95F1F7E7
:103EF00000002111F5CF2091E80025FF0BC050E014
:103F000040E065E070E00E945B218091E8008E77E0
:103F10008093E8000895CF93DF93D82FC92F809125
:103F200089028430F1F4909112019923E9F0909183
:103F3000830297FF19C08093E9008FEF9091E8000A
:103F4000815095FD06C095E19A95F1F70000811129
:103F5000F5CF8091E80050E040E060E270E085FD40
:103F60001AC0DF91CF91089581E08093E9008FEF2F
:103F70009091E800815095FD06C095ED9A95F1F776
:103F800000008111F5CF8091E80085FFEACF50E075
:103F900040E068E070E08D2F9C2F0E945B218091B3
:103FA000E8008E778093E80080E2ED2FFC2FADE5EE
:103FB000B2E001900D928A95E1F7D3CF809188020B
:103FC000811109C00E94E3220E9440238091E200F7
:103FD00084608093E2000895109288020895089505
:103FE00008950C94651A42E061EC81E00E945F2222
:103FF00042E061EC82E00E945F2242E061EC83E0FB
:104000000E945F2242E261EC84E00C945F22809186
:104010008B02893089F148F4823009F494C08330EE
:1040200009F44FC0813041F008958A3009F47BC013
:104030008B3009F461C0089580918A02813A09F0B9
:104040003FC08091E800877F8093E80080918E02D6
:1040500090918F02892B61F460E28DE592E070E02F
:104060000E94AA218091E8008B778093E800089550
:1040700060E090E080E0F3CF80918A02813201F528
:1040800080918E0290918F02009711F00397C1F4F6
:104090008091E800877F8093E8008091E80082FFAC
:1040A0000BC08091F10080937D028091E8008B77B6
:1040B0008093E8000C949322809189028111EDCFC6
:1040C000089580918A02813AD9F780918E02909169
:1040D0008F02892BA9F78091E800877F8093E80001
:1040E0008091E80080FFFCCF809112018093F10065
:1040F0008091E8008E77DCCF80918A02813201F7CF
:1041000080918E0290918F02892BD1F68091E800E8
:10411000877F8093E8000E94932280918C02809395
:1041200012010C94BC1280918A02813249F680916E
:10413000E800877F8093E8000E94932280918D029F
:1041400080937E02089580918A02813A09F0B8CF67
:104150008091E800877F8093E8008091E80080FFED
:10416000FCCF80917E02C2CF84B7877F84BF0FB619
:10417000F894A89580916000886180936000109207
:1041800060000FBE80E880936100109261000E9481
:10419000100E0E94E3220E9440238091E20084607E
:1041A0008093E20078940E94C0250E94120E88E05D
:1041B00091E00E94BC0D80918902853019F00E9427
:1041C000180EF9CF0E94221A80918702882399F352
:1041D0000E94501A882379F30E944521ECCF9C015C
:1041E000DA01892F992783309105C1F068F4813075
:1041F000910509F445C0029761F48DE690E02CEF3B
:104200003FE02D933C93089581329105E1F0829730
:1042100039F190E080E030E020E0F3CFC901992748
:10422000213059F08230910559F0E8EFFFE0892BF9
:1042300081F7849190E09F01E4CFE0EEFFE0F9CFB9
:10424000ECECFFE0F6CF643020F7E62FF0E0EE0F65
:10425000FF1FEB5CFE4F2081318189E090E0D1CFE0
:104260006430B8F670E0FB01EE0FFF1FE35DFE4F18
:1042700020813181675D7E4FFB01808190E0C1CF5D
:1042800082E190E029E630E1BCCF80E189BD82E1A6
:1042900089BD09B400FEFDCF8091D8008F7D809349
:1042A000D8008091E00082608093E0008091E0007F
:1042B00081FDFCCF0895AF92BF92CF92DF92FF9223
:1042C0000F931F93CF93DF936C01EB018A010E9440
:1042D000B222F82E811123C00115110539F0F80121
:1042E00080819181C81BD90BC80ED91EB12CA12C7D
:1042F0002097A9F08091E80085FD22C08091E80018
:104300008E778093E80001151105A1F0F8018081F6
:104310009181A80EB91EB182A08285E0F82E8F2D62
:10432000DF91CF911F910F91FF90DF90CF90BF90C1
:10433000AF9008950E94B2228823D1F2F82EEFCFD9
:10434000F60181916F018093F1002197FFEFAF1A81
:10435000BF0ACECFFC01CB01209190023091910297
:104360002617370790F0009729F42091E8002E7760
:104370002093E80040E0009751F4411108C080917B
:10438000E80082FF31C080E00895C901F3CF209199
:1043900089022223A9F12530A9F12091E80023FD0B
:1043A0002DC02091E80022FDEACF2091E80020FFF7
:1043B000E2CF3091F3002091F200009719F02830FD
:1043C000310558F041E02830310509F040E02091F6
:1043D000E8002E772093E800CECF41914093F10082
:1043E00001972F5F3F4FE9CF80918902882341F0E9
:1043F000853041F08091E80083FFC1CF81E00895CE
:1044000082E0089583E00895FC01CB0120919002A1
:10441000309191022617370790F0009729F42091E8
:10442000E8002E772093E80040E0009751F4411116
:1044300008C08091E80082FF32C080E00895C90181
:10444000F3CF209189022223B1F12530B1F12091DF
:10445000E80023FD2EC02091E80022FDEACF209144
:10446000E80020FFE2CF3091F3002091F2000097A6
:1044700019F02830310558F041E02830310509F0B5
:1044800040E02091E8002E772093E800CECF4491C1
:104490004093F100319601972F5F3F4FE8CF809115
:1044A0008902882341F0853041F08091E80083FF44
:1044B000C0CF81E0089582E0089583E00895982FA9
:1044C000973028F08F708093E90081E008959093F1
:1044D000E900242F762F50E0981731F07091EC000E
:1044E0002091ED005091F00021FD02C09F5FE8CFC8
:1044F0003091EB003E7F3093EB003091ED003D7F3B
:104500003093ED003091EB0031603093EB0070930D
:10451000EC002093ED005093F0002091EE0027FD79
:10452000E5CF80E0089580918A0287FF13C08091D3
:10453000E80082FF06C08091E8008B778093E80056
:1045400004C0809189028111F2CF0895809189027F
:104550008823D9F38091E80080FFF8CF8091E800AC
:104560008E77ECCF2091E4003091E50095E6A9012B
:104570002091EC00822F817020FF06C08091E8001E
:1045800080FF06C080E008952091E80022FD1AC057
:1045900080918902882389F0853089F08091EB0031
:1045A00085FD0FC02091E4003091E50042175307CC
:1045B000F9F29150E1F684E0089582E0089583E0F5
:1045C000089581E008950E9451230E945923E0EE4E
:1045D000F0E0808181608083E8EDF0E080818F777A
:1045E000808319BCA7EDB0E08C918E7F8C93808185
:1045F0008F7E80831092880208950F931F93CF932C
:10460000DF930E9451230E945923C8EDD0E0888196
:104610008F77888388818068888388818F7D88836D
:1046200019BC109289021092850210928702109292
:10463000860200EE10E0F80180818B7F8083888104
:104640008160888342E060E080E00E945F22E1EECA
:10465000F0E080818E7F8083E2EEF0E080818160F7
:104660008083808188608083F80180818E7F808351
:10467000888180618883DF91CF911F910F91089588
:10468000E8EDF0E080818F7E8083E7EDF0E08081CF
:104690008160808384E082BF81E0809388020C94F3
:1046A000FD22E8EDF0E080818E7F80831092E200B1
:1046B00008951092DA001092E10008951F920F926F
:1046C0000FB60F9211242F933F934F935F936F93E5
:1046D0007F938F939F93AF93BF93EF93FF938091BB
:1046E000E10082FF0BC08091E20082FF07C0809151
:1046F000E1008B7F8093E1000E94BF258091DA006A
:1047000080FF19C08091D80080FF15C08091DA0029
:104710008E7F8093DA008091D90080FF94C080E181
:1047200089BD82E189BD09B400FEFDCF81E080939F
:1047300089020E94DE1F8091E10080FF19C08091F4
:10474000E20080FF15C08091E2008E7F8093E2003E
:104750008091E20080618093E2008091D8008062C5
:104760008093D80019BC85E0809389020E94F01FD5
:104770008091E10084FF29C08091E20084FF25C080
:1047800080E189BD82E189BD09B400FEFDCF809141
:10479000D8008F7D8093D8008091E1008F7E809338
:1047A000E1008091E2008F7E8093E2008091E20040
:1047B00081608093E20080918502882309F449C0DA
:1047C00084E0809389020E94F11F8091E10083FFC1
:1047D00029C08091E20083FF25C08091E100877F9E
:1047E0008093E10082E0809389021092850280919B
:1047F000E1008E7F8093E1008091E2008E7F8093C4
:10480000E2008091E20080618093E20042E060E09B
:1048100080E00E945F228091F00088608093F00029
:104820000E94EF1FFF91EF91BF91AF919F918F91E8
:104830007F916F915F914F913F912F910F900FBE9C
:104840000F901F90189519BC109289020E94EC1FBE
:1048500072CF8091E30087FD02C081E0B2CF83E098
:10486000B0CF1F920F920FB60F9211242F933F9348
:104870004F935F936F937F938F939F93AF93BF9368
:10488000CF93DF93EF93FF93D091E900DF70809196
:10489000EC00C82FC17080FDC0E81092E900809143
:1048A000F000877F8093F00078940E947524109226
:1048B000E9008091F00088608093F000CD2BCF70EC
:1048C000C093E900FF91EF91DF91CF91BF91AF913C
:1048D0009F918F917F916F915F914F913F912F9118
:1048E0000F900FBE0F901F9018951F93CF93DF93DB
:1048F000CDB7DEB7AA970FB6F894DEBF0FBECDBF17
:104900008AE892E0FC0101962091F100208322E0E8
:1049100082399207B9F70E9407208091E80083FF4F
:1049200016C180918A0290918B029A3008F00FC1D3
:10493000E92FF0E0EC56F84D0C942027803881F0F8
:10494000823809F004C180918E028F708093E90053
:104950008091EB0085FB882780F91092E90006C062
:104960008091860290918702911182609091E80077
:10497000977F9093E8008093F1001092F10080916E
:10498000E8008E77E0C0882309F4CEC0823009F0B9
:10499000DEC080918C028111D1C080918E028F7017
:1049A00009F4D5C08093E9002091EB0020FFC6C038
:1049B000933031F48091EB0080628093EB00BEC0B5
:1049C0009091EB0090619093EB0021E030E001C00A
:1049D000220F8A95EAF72093EA001092EA0080916C
:1049E000EB008860EACF8111B2C010918C021F7772
:1049F0008091E3008078812B8093E3008091E80030
:104A0000877F8093E8000E9493228091E80080FFD6
:104A1000FCCF8091E30080688093E30082E0111175
:104A200083E08093890293C08058823008F08FC061
:104A300080918C0290918D028C3D23E09207A1F52C
:104A400083E08A838AE289834FB7F894DE01139664
:104A500020E03EE051E2E32FF0E050935700E49174
:104A600020FF03C0E295EF703F5FEF708E2F90E064
:104A7000EA30C0F0C7968D939D932F5F243159F78C
:104A80004FBF8091E800877F8093E8006AE270E082
:104A9000CE0101960E94AA218091E8008B77809335
:104AA000E80055C0C096E7CFAE014F5F5F4F609101
:104AB0008E020E94EF20BC01892B09F448C080912E
:104AC000E800877F8093E80089819A810E94042210
:104AD000E3CF8038E1F58091E800877F8093E8009C
:104AE000809185028093F1004ACF811130C090916E
:104AF0008C02923060F58091E800877F8093E80017
:104B0000909385020E94932280918502882311F060
:104B100084E005C08091E30087FDFACF81E08093B7
:104B200089020E94F31F13C080918C02813079F4B6
:104B300081E0933009F080E0809387021092E900D1
:104B40008091E800877F8093E8000E949322809103
:104B5000E80083FF0AC08091E800877F8093E80027
:104B60008091EB0080628093EB00AA960FB6F894D8
:104B7000DEBF0FBECDBFDF91CF911F910895089585
:104B8000CF93809189028823A1F0C091E900CF7072
:104B90009091EC00892F817090FD80E8C82B1092D5
:104BA000E9008091E80083FD0E947524CF70C093D6
:104BB000E900CF9108950E94E2256894B1110C9408
:104BC000712608950E94562688F09F5798F0B92FB5
:104BD0009927B751B0F0E1F0660F771F881F991F32
:104BE0001AF0BA95C9F714C0B13091F00E9470263E
:104BF000B1E008950C947026672F782F8827B85F4E
:104C000039F0B93FCCF3869577956795B395D9F789
:104C10003EF490958095709561957F4F8F4F9F4F93
:104C20000895E89409C097FB3EF49095809570959F
:104C300061957F4F8F4F9F4F9923A9F0F92F96E9E8
:104C4000BB279395F695879577956795B795F1115D
:104C5000F8CFFAF4BB0F11F460FF1BC06F5F7F4FFA
:104C60008F4F9F4F16C0882311F096E911C077230C
:104C700021F09EE8872F762F05C0662371F096E815
:104C8000862F70E060E02AF09A95660F771F881FE4
:104C9000DAF7880F9695879597F9089557FD9058FC
:104CA000440F551F59F05F3F71F04795880F97FBF0
:104CB000991F61F09F3F79F08795089512161306AA
:104CC0001406551FF2CF4695F1DF08C016161706D9
:104CD0001806991FF1CF869571056105089408950E
:104CE000E894BB2766277727CB0197F908950E94A0
:104CF0008A260C94FB260E94ED2638F00E94F426AA
:104D000020F0952311F00C94E4260C94EA2611244B
:104D10000C9471260E944E2670F3959FC1F3950F57
:104D200050E0551F629FF001729FBB27F00DB11D2F
:104D3000639FAA27F00DB11DAA1F649F6627B00DBF
:104D4000A11D661F829F2227B00DA11D621F739FA8
:104D5000B00DA11D621F839FA00D611D221F749FB6
:104D60003327A00D611D231F849F600D211D822FFD
:104D7000762F6A2F11249F5750409AF0F1F0882324
:104D80004AF0EE0FFF1FBB1F661F771F881F915051
:104D90005040A9F79E3F510580F00C94E4260C94F6
:104DA00071265F3FE4F3983ED4F386957795679537
:104DB000B795F795E7959F5FC1F7FE2B880F911D7B
:104DC0009695879597F9089597F99F6780E870E021
:104DD00060E008959FEF80EC089500240A94161671
:104DE000170618060906089500240A9412161306D9
:104DF000140605060895092E0394000C11F4882367
:104E000052F0BB0F40F4BF2B11F460FF04C06F5F82
:104E10007F4F8F4F9F4F089597FB072E16F40094F6
:104E200007D077FD09D00E94262707FC05D03EF465
:104E3000909581959F4F0895709561957F4F089546
:104E4000EE0FFF1F0590F491E02D0994AA1BBB1BE8
:104E500051E107C0AA1FBB1FA617B70710F0A61B7A
:104E6000B70B881F991F5A95A9F780959095BC019B
:104E7000CD010895F999FECF92BD81BDF89A992789
:104E800080B50895A8E1B0E042E050E00C946227BC
:104E9000262FF999FECF92BD81BDF89A019700B4F3
:104EA000021639F01FBA20BD0FB6F894FA9AF99A93
:104EB0000FBE08950196272F0E9449270C9448277A
:104EC000DC01CB01FC01F999FECF06C0F2BDE1BDCA
:104ED000F89A319600B40D9241505040B8F70895B9
:104EE000F894FFCFBE09CA09CE09D209D609DA095A
:104EF000DE09E209E609EA09EE09F209F609FA090A
:104F0000FE09020A060A0A0A67106710BF10BF10DE
:104F100003111F11971097102A119710F211F21117
:104F20005D129710971066129E24C324A725C324F0
:0C4F3000A725F3241425A7256925752565
:104F3C002F022808140A321EFB1E8B1F681F311FFC
:104F4C00FE1E0167663497333230C6319196F4F108
:104F5C00F0F5F6F79495939290404D36393711EA67
:0E4F6C0010B4107B100E1027104010591000CA
:00000001FF
